:0C0A6700EF4E6007EF1F70F81E80F522B4
:100A4000AD07AC06ED4C600E7F707E00120A67EDBC
:070A50001D70F11C80EE2275
:100A5700AB07EB600A7FE87E03120A401B80F32294
:0A0A7F00C0F9A4B0999282F88090AB
:04094B008E0A8F0B76
:10094F00780C7C007D007BFF7A0A797F7E007F0A1E
:10095F001208D0E4F517F518850A19850B1AAE1988
:10096F00AF1A7C037DE81208F68F16AE19AF1A7C0A
:10097F00037DE81208F68C198D1A758001740C2509
:10098F0016F8E6F5A07F0A7E00120A67AE19AF1AB5
:10099F007C007D641208F68F16AE19AF1A7C007DAD
:1009AF00641208F68C198D1A758002740C2516F8CE
:1009BF00E6F5A07F0A7E00120A67AE19AF1A7C0017
:1009CF007D0A1208F68F16758004740C2516F8E64A
:1009DF00F5A07F0A7E00120A67AE19AF1A7C007D60
:1009EF000A1208F68D16758008740C2516F8E6F5B0
:1009FF00A07F0A7E00120A670518E5187002051716
:0C0A0F00C39464E51794005003020967CB
:010A1B0022B8
:100A1C00E4F508F509E4F508F509AF09AE08120983
:100A2C004B0509E50970020508C3940FE5089427E6
:040A3C0040E880E12D
:03000000020A737E
:0C0A7300787FE4F6D8FD75811A020A1C99
:10080000E709F608DFFA8046E709F208DFFA803EDA
:1008100088828C83E709F0A3DFFA8032E309F608C7
:10082000DFFA8078E309F208DFFA807088828C832F
:10083000E309F0A3DFFA806489828A83E0A3F608E3
:10084000DFFA805889828A83E0A3F208DFFA804CBD
:1008500080D280FA80C680D4806980F28033801094
:1008600080A680EA809A80A880DA80E280CA8033FD
:1008700089828A83ECFAE493A3C8C582C8CCC58375
:10088000CCF0A3C8C582C8CCC583CCDFE9DEE78045
:100890000D89828A83E493A3F608DFF9ECFAA9F0C4
:1008A000EDFB2289828A83ECFAE0A3C8C582C8CC1A
:1008B000C583CCF0A3C8C582C8CCC583CCDFEADE33
:1008C000E880DB89828A83E493A3F208DFF980CC95
:1008D00088F0EF60010E4E60C388F0ED2402B4048E
:1008E0000050B9F582EB2402B4040050AF23234535
:0608F00082239008507302
:1008F600BC000BBE0029EF8DF084FFADF022E4CCE6
:10090600F875F008EF2FFFEE33FEEC33FCEE9DECAE
:10091600984005FCEE9DFE0FD5F0E9E4CEFD22EDF4
:10092600F8F5F0EE8420D21CFEADF075F008EF2F3E
:10093600FFED33FD4007985006D5F0F222C398FD2F
:050946000FD5F0EA22CC
:00000001FF
