:03000000020008F3
:07006100750D80750E80751E
:060068000FC07510907539
:02006E0011D0AF
:0300700002000388
:0500030012107A80FEDE
:0E007300AA82AB83ACF0FD438920759850D271
:0B0081008E8A828B838CF0ED02008CD5
:0E008C00AA82AB83ACF0FDC3EA9460EB94094A
:0E009A00EC9400ED9400404FE49A74C29B7405
:0E00A800019CE49D4043C002C003C004C0059B
:0E00B600900180E4F5F01215DFAA82AB83AC56
:0E00C400F0FDE58124FCF581C002C003C004FC
:0E00D200C00590C00075F0A8E4121556AA8271
:0E00E000AB83ACF0FDE58124FCF581C3E49A0E
:0300EE00FA800293
:0200F1007A5D36
:0300F3008A8D22D1
:0500F60010980280FBE0
:0400FB00859982223F
:0300FF008582995E
:0501020010990280FBD2
:0101070022D5
:06010800AA82AB83ACF0FB
:0E010E008A828B838CF01215C3FD60180ABA2A
:03011C0000010BD4
:0E011F008D82C002C003C0041200FFD004D0C5
:05012D0003D00280DC9C
:0101320022AA
:0A013300C013858113C082C083C091
:0C013D00F0C0E0E5812412F581A8130851
:0C014900E60846084608467030E513241E
:0401550005FE7A0029
:0B015900E51324FDF8C3EA9640030202
:02016400025E39
:0E016600C0068A067F00C3EE940AEF9400D014
:0601740006400302025EDA
:08017A00EA2EF876000A80D796
:07018200E5132405FC7D00DC
:0B018900E51324FDF8C3ED96400302CF
:02019400026007
:0C019600A81308E6084608460846700357
:0301A20002023C1A
:0E01A500ED2CF8C004C005C000740AC0E0E4F0
:0C01B300C0E0C0E0C0E0A9130987820989
:0C01BF0087830987F009E7121556C9E58F
:0C01CB0013240FC9A78209A78309A7F01D
:0C01D70009F7E58124FCF581E513240FF5
:0E01E300F9E7C0E009E7C0E009E7C0E009E77E
:0E01F100C0E090000AE4F5F01215DFAF82AE18
:0E01FF0083AAF0FBE58124FCF581D000D00539
:0C020D00D004A91309E7C39FFF09E79E76
:0C021900FE09E79AFA09E79BFBA607E53F
:0A02250013240FF8A91309E6F708E7
:0D022F0009E6F70809E6F70809E6F7801E62
:0C023C00E51324FDF886027B00BAFF05E4
:05024800BB0002801361
:0D024D00C3740A9AE49B400BED2CF8760078
:04025A000D02018907
:02025E0080021C
:020260008D020D
:05026200E5132405FB7B
:0E026700EA601BEA14FC2BF8860574302DF5B6
:0E02750082C003C0041200FFD004D0038C022C
:0202830080E217
:06028500851381D0132255
:0A028B00C013858113C082C083C038
:0C029500F0C0E0E581240EF581A81308FC
:0C02A100E60846084608467030E51324C5
:0402AD0005FE7A00D0
:0B02B100E51324FDF8C3EA96400302A9
:0202BC000362DB
:0E02BE00C0068A067F00C3EE940AEF9400D0BB
:0602CC000640030203627C
:0802D200EA2EF876000A80D73D
:0702DA00E5132405FE7F007F
:0B02E100E51324FDF8C3EF9640030274
:0202EC000364A9
:0C02EE00A81308E60846084608466046CB
:0C02FA00EF2EF8C006A91309740F57FE80
:0C0306007A007B007C00A606A813080803
:0E031200E618C4C6C4540F66C6540FC666C6AD
:0E03200008F608E6C454F01846F60808E61879
:0E032E00C4C6C4540F66C6540FC666C608F691
:04033C00D006801E49
:0C034000E51324FDF886027B00BAFF05DF
:05034C00BB000280135C
:0D035100C3740A9AE49B400BEF2EF876006F
:04035E000F0202E1A7
:02036200800217
:020364008F0206
:05036600E5132405FB76
:0E036B00EA6033EA142BF886047409B5040026
:0E037900500CEA142BF8860474372CFC800A12
:0A038700EA142BF8860574302DFCF3
:0E0391008C82C002C0031200FFD003D0021AFB
:02039F0080CA12
:0603A100851381D0132238
:0A03A700C013E581F513240EF58163
:0A03B100E51324FBFAA81308A602C6
:0C03BB00E51324FBF8860308860408867E
:0103C7000530
:0E03C8008B828C838DF01215C3FEBE000302E3
:0203D600082EEF
:0A03D800E513240AF8A606E5132435
:0703E2000AF8B625028003B2
:0303E900020810F7
:0503EC000BBB00010C39
:0C03F1008B828C838DF01215C3FFE51386
:0C03FD00240AF8A607E513240AF8C3E65A
:09040900648094B05003020499D0
:0C041200E513240AF8C374B986F063F007
:08041E008095F05003020499DF
:0A042600E513240BF87600E513241B
:0A0430000CF8A60308A60408A605B0
:0C043A00E513240AF8C3E6648094B04087
:0C0446005BE513240AF8C374B986F06368
:0C045200F08095F0404AE513240BF8E61A
:0C045E0075F00AA4FAE513240AF8E6245D
:0B046A00D02AFAE513240BF8A602E5E7
:0A04750013240CF806B60002080676
:0C047F00E513240CF886820886830886AA
:0C048B00F01215C3FAE513240AF8A602CB
:0204970080A142
:09049900E513240BF876FF800D39
:0C04A200E513240CF88603088604088685
:0104AE000548
:0B04AF00E513240AF8B625030207FC41
:0B04BA00E513240AF8B642030207BD58
:0B04C500E513240AF8B64303020555B6
:0B04D000E513240AF8B644030205F30C
:0B04DB00E513240AF8B646030207C62A
:0B04E600E513240AF8B653030207CF09
:0B04F100E513240AF8B655030206BC10
:0B04FC00E513240AF8B6580302075667
:0B050700E513240AF8B662030207B6F1
:0A051200E513240AF8B663028039ED
:0A051C00E513240AF8B664028061BA
:0B052600E513240AF8B666030207C6BE
:0B053100E513240AF8B673030207CF9D
:0B053C00E513240AF8B67503020673ED
:0B054700E513240AF8B6780302070D44
:0305520002082676
:0A055500A91309E724FEF8A9130911
:0C055F00A700860208860618E513240A8F
:0C056B00F8A602E513240AF88682C003FB
:0E057700C004C0051200FFD005D004D003025E
:02058500082646
:0A058700A91309E724FEF8A91309DF
:0E059100A700860208860618EE30E721C3E4B4
:0E059F009AFAE49EFE75822DC002C003C004CD
:0E05AD00C005C0061200FFD006D005D004D055
:0305BB0003D00268
:0E05BE00C003C004C005EE3395E0FFFBC00390
:0C05CC00C004C005E513240BF8E6C0E0F5
:0E05D8008A828E838FF0EB1201331581D005DD
:0D05E600D004D003D005D004D003020826B5
:0A05F300A91309E724FCF8A9130975
:0C05FD00A700A9130909E6F708E609F7B2
:0C06090008E609F708E609F7181818A819
:0A061500130808A8130808080808D5
:0C061F00E630E726A8130808C3E496F6AE
:0E062B0008E496F608E496F608E496F6758262
:0E0639002DC003C004C0051200FFD005D00480
:02064700D003DE
:0C064900C003C004C005E513240BF8E654
:0C065500C0E0A81308088682088683080D
:0E06610086F008E61201331581D005D004D0D2
:04066F000302082654
:0C067300C003C004C005A91309E724FE61
:0C067F00F8A91309A700860208860618D7
:0E068B008A078E037C007D00C003C004C005FA
:0C069900E513240BF8E6C0E08F828B8391
:0E06A5008CF0ED1201331581D005D004D00386
:0906B300D005D004D00302082692
:0A06BC00A91309E724FCF8A91309AB
:0C06C600A700E5132406F9E6F708E60992
:0D06D200F708E609F708E609F7181818E51B
:0A06DF00132406C003C004C005E5A3
:0A06E90013240BF8E6C0E0E513242B
:0D06F30006F886820886830886F008E61265
:0D07000001331581D005D004D00302082676
:0C070D00C003C004C005A91309E724FEC6
:0C071900F8A91309A7008607088603183A
:0E0725008F028B067B007C00C003C004C00561
:0C073300E513240BF8E6C0E08A828E83F8
:0E073F008BF0EC12028B1581D005D004D00394
:09074D00D005D004D003020826F7
:0C075600C003C004C005A91309E724FC7F
:0C076200F8A91309A70086020886060803
:0C076E008607088603181818E5132406F7
:0E077A00F8A60208A60608A60708A603C003F4
:0C078800C004C005E513240BF8E6C0E037
:0C079400E5132406F88682088683088698
:0E07A000F008E612028B1581D005D004D003BC
:0807AE00D005D004D0038070D7
:0707B600A813081616806964
:0907BD00A8130816161616806038
:0907C600A8130816161616805738
:0A07CF00A91309E724FDF8A9130996
:0E07D900A700860208860608860718188A827E
:0E07E7008E838FF0C003C004C005120108D03D
:0707F50005D004D003802AA7
:0E07FC00758225C003C004C0051200FFD005A1
:06080A00D004D0038016AB
:0C081000E513240AF88682C003C004C06F
:0A081C00051200FFD005D004D00340
:050826000BBB00010CFA
:03082B000203C8FD
:06082E00851381D01322A6
:0A0834001209FD1209FE7582D012B0
:0C083E000A3F758207120A3F7582001203
:05084A000A3F020A2034
:0A084F00C013858113AA82C00212B3
:0C08590009FE7582D0120A3F7582001261
:0A0865000A3FE51324FCF886821216
:0A086F000A3FE51324FDF88682120B
:0A0879000A3FD0028A82120A3F12E1
:050883000A20D0132241
:0A088800C013858113AA82C002127A
:0C08920009FE7582D0120A3F7582041224
:0A089E000A3FD0028A82120A3FE5E9
:0A08A8001324FDF88682120A3FE5D2
:0A08B2001324FCF88682120A3F129C
:0508BC000A20D0132208
:0A08C100C013858113C082C083C0FC
:0E08CB00F01209FE7582D0120A3F75820012EB
:0608D9000A3F120A201282
:0908DF0009FE7582D1120A3FE501
:0C08E8001324F8F8860508860608860729
:0E08F400758201C005C006C007120A6BAA82F9
:0E090200D007D006D0058D828E838FF0EA12CA
:0C091000153DE51324FBF8860208860361
:0D091C00088604758201C002C003C00412E9
:0E0929000A6BAD82D004D003D0028A828B8389
:0E0937008CF0ED12153D758200120A6BAA823B
:0C094500A8130886820886830886F0EA62
:0709510012153D120A20857A
:050958001381D0132201
:0A095D00C013858113AA82AB83AC9E
:0E096700F0C002C003C0041209FE7582D01257
:090975000A3F758204120A3F12C8
:09097E000A201209FE7582D11253
:0E0987000A3F758201120A6BAD82D004D003C4
:0D099500D0028A828B838CF0ED12153DE5B7
:0C09A2001324FBF8860208860308860474
:0E09AE00758201C002C003C004120A6BAD8244
:0E09BC00D004D003D0028A828B838CF0ED121F
:0C09CA00153DE51324F8F88602088603AA
:0D09D600088604758200C002C003C0041230
:0E09E3000A6BAD82D004D003D0028A828B83CF
:0A09F1008CF0ED12153D120A20D023
:0209FB001322C5
:0109FD0022D7
:0E09FE005380BF438080900001120D3C438067
:0E0A0C0040900001120D3C53807F90000112BB
:060A1A000D3C5380BF22D9
:0D0A20005380BF900001120D3C53807F9069
:0E0A2D000001120D3C438040900001120D3C70
:040A3B004380802252
:070A3F00AA8253807F7B00B7
:030A4600BB0800EA
:0B0A4900501DEA30E705438080800369
:030A540053807F4D
:0E0A5700C002C003120ACAD003D002EA2AFA73
:030A65000B80DE25
:030A6800020ACAB5
:090A6B00AA827B004380807C001C
:030A7400BC0800BB
:0E0A7700503B900001C002C003C004120D3CB1
:0E0A8500438040900001120D3CD004D003D0FD
:0E0A930002EB2BFB74805580FDE4FEBD0004D9
:040AA100BE0001048E
:040AA500FDB401009B
:0B0AA900E433FD42035380BF0C80C00B
:0C0AB400BA0109C003120ADDD00380075C
:070AC000C003120AE7D00396
:030AC7008B8222FD
:0D0ACA00900001120D3C438040900001128D
:060AD7000D3C5380BF221C
:0A0ADD0053807F120ACA4380802272
:0A0AE700438080120ACA43804022B7
:0A0AF100C013858113AA8275A000CE
:0A0AFB007580008A0CE51324FCF856
:080B0500860BE51324FDF886C0
:0A0B0D000AE51324FDF8E624FD506C
:0C0B170016E51324FCF8860253020F7B45
:0A0B23000074902AF51074D02AF532
:010B2D0011B6
:0C0B2E00900064120D4CAA0C7B00BA0869
:0C0B3A000BBB0008758238120B9E800F68
:0D0B4600BA040CBB0009120CA8758228121D
:020B53000B9EF7
:0A0B550075820E120B9E120B61D088
:020B5F0013225F
:0C0B6100758201120B9E758201020B6D63
:070B6D00AA82E50AB50200AF
:090B7400400E7509008A08EA240C
:070B7D000DF88682020B9EB9
:010B8400224E
:060B85000508750900E5FA
:040B8B000AB508009F
:050B8F00500375080190
:080B9400E508240DF886820239
:020B9C000B9EAE
:0C0B9E00AA82C002120C56D002AB0C7CE4
:0C0BAA0000BB0808BC00058AA0020D1664
:0E0BB600BB041BBC00188A82C002120CE412A1
:0E0BC4000D16D002EAC454F0F582120CE402C1
:020BD2000D16FE
:010BD40022FE
:070BD500AA82E509B50B003F
:050BDC005003BA0A07F6
:070BE100C002120B85D002D7
:040BE800BA0A012222
:080BEC008A82120C1F05092288
:060BF400AA82AB83ACF005
:0E0BFA008A828B838CF01215C3FD60180ABA34
:030C080000010BDD
:0E0C0B008D82C002C003C004120BD5D004D0ED
:050C190003D00280DCA5
:010C1E0022B3
:0C0C1F00AA82C002120C56D002AB0C7C62
:0C0C2B0000BB0808BC00058AA0020D29CF
:0E0C3700BB041BBC00188A82C002120CE4121F
:0E0C45000D29D002EAC454F0F582120CE4022C
:020C53000D2969
:010C5500227C
:090C560043A0805380FE4380029C
:0D0C5F005380FB90000A120D3C438004906E
:0E0C6C00000A120D3C748055A0FAE4FBBA0099
:050C7A0004BB000104B1
:040C7F00FAB40100C2
:0C0C8300E433FA7404B50C165380FB90A7
:0E0C8F00000AC002120D3C43800490000A12BD
:040C9D000D3CD00238
:070CA100EA70BB53A07F22A3
:0D0CA800758230120CE4120D1690006412DB
:090CB5000D4C758230120CE412A2
:0C0CBE000D169000C8120D3C758230121B
:090CCA000CE4120D169000C81292
:090CD3000D3C758220120CE412A4
:080CDC000D169000C8020D3C4A
:0B0CE400E582FA30E40543A010800315
:030CEF0053A0EF20
:090CF200EA30E50543A02080036F
:030CFB0053A0DF24
:090CFE00EA30E60543A040800342
:030D070053A0BF37
:080D0A00EA30E70443A0802257
:040D120053A07F2249
:0D0D16005380FE5380FD43800490000A12BC
:060D23000D3C5380FB2291
:0D0D29004380015380FD43800490000A12B6
:060D36000D3C5380FB227E
:040D3C00AA82AB8359
:0B0D4000EA4B60071ABAFFF81B80F5B1
:010D4B002285
:040D4C00AA82AB8349
:0E0D5000EA4B6015900070C002C003120D3C0B
:0B0D5E00D003D0021ABAFFEA1B80E7A6
:010D69002267
:040D6A00AA82AB832B
:0E0D6E00EA4B60159003E8C002C003120D4C62
:0B0D7C00D003D0021ABAFFEA1B80E788
:010D87002249
:0E0D88005380EF5380F75380BF438040759037
:020D9600FF223A
:0B0D9800E582FA30E005438001800393
:030DA3005380FE7C
:090DA600EA30E1054380028003FC
:030DAF005380FD71
:090DB200EA30E2054380048003ED
:030DBB005380FB67
:0D0DBE00438008900032120D3C43801090DD
:0E0DCB000019120D3C5380F7900032120D3CBF
:030DD9005380EF55
:0E0DDC0074205580FA7B00BA0005BB0002802F
:010DEA00F117
:0E0DEB00438040900019120D3CAA907B0053EB
:070DF90080BF8A828B832278
:040E000075A00F22A8
:0E0E0400740FF5A055A0FABA0FF69000011277
:0D0E12000D4C740FF5A055A0FABA0FE622A2
:0C0E1F00740FF5A055A0FABA0F0280F481
:0E0E2B00900001120D4C740FF5A055A0FABAFC
:040E39000F0280E242
:010E3D002292
:0A0E3E00120E04900001120D4C1278
:0B0E48000E1F120EE8AA82BA77030208
:020E53000ED3BC
:060E5500BA7B03020ED778
:060E5B00BA7D03020EDB6C
:060E6100BA7E03020EDF61
:050E6700BAB70280573C
:050E6C00BABB02805634
:050E7100BABD0280552E
:050E7600BABE02805429
:050E7B00BAD70280332C
:050E8000BADB02803224
:050E8500BADD0280311E
:050E8A00BADE02803019
:050E8F00BAE702800F2C
:050E9400BAEB02800E24
:050E9900BAED02800D1E
:050E9E00BAEE42800CD9
:040EA3007A30803EE3
:040EA7007A31803AE2
:040EAB007A328036E1
:040EAF007A338032E0
:040EB3007A34802EDF
:040EB7007A35802ADE
:040EBB007A368026DD
:040EBF007A378022DC
:040EC3007A38801EDB
:040EC7007A39801ADA
:040ECB007A418016D2
:040ECF007A428012D1
:040ED3007A43800ED0
:040ED7007A44800ACF
:040EDB007A458006CE
:040EDF007A468002CD
:020EE3007A7A19
:030EE5008A8222DC
:0A0EE800C01385811305817AEF7BAA
:010EF20000FF
:030EF300BB04003D
:0E0EF60050208AA0900001C002C003120D4CD3
:0E0F0400D003D002740F55A0FDBD0F08EA2ADD
:060F1200FC04FA0B80DB79
:0B0F18005302F0EA2DF582851381D012
:020F2300132297
:0A0F2500C013858113AA82AB837408
:0D0F2F00F02B40368A048B02C002C0041271
:0E0F3C0009FE7582A0120A3FD004D0028A82FC
:0D0F4A00C004120A3FD0048C82120A3FE559
:0A0F57001324FDF88682120A3F12EF
:080F61000A2090000A120D4C59
:030F6900D0132280
:0E0F6C00AA82AB837C0074F02B40438A058B75
:0E0F7A0002C002C0051209FE7582A0120A3FD5
:0E0F8800D005D0028A82C005120A3FD0058D26
:0B0F960082120A3F1209FE7582A112B0
:0E0FA1000A3F758200120A6BAA828A04C004FD
:0B0FAF00120A2090000A120D3CD00432
:030FBA008C822204
:0A0FBD00C01385811305810581AA88
:0C0FC70082AB83E51324FBF88604088647
:0C0FD30005088606A81308A60208A6035D
:0E0FDF008C828D838EF01215C3FFA3AC82AD01
:0C0FED0083C004C005C006C007A813089C
:0E0FF9008682088683120F251581D006D0054A
:0B100700D004A8130806B6000208067B
:0E101200EC24FFFFED34FFFA8E038F828A83F9
:0B1020008BF01215C370B8851381D04F
:02102B0013228E
:0A102D00C013858113AA82AB83E58E
:0C1037001324FBF88604088605088606D2
:0E1043008A828B83C002C003C004C005C006B1
:0E105100120F6CAF82D006D005D004D003D0B1
:0E105F00028C828D838EF0EF12153DA3AC82C1
:07106D00AD830ABA00010B7C
:06107400EF70CCD0132246
:0E107A00902580E4F5F012007390165375F087
:0B108800801201089016CA75F080125B
:0710930001081200F685823E
:01109A001243
:0C109B00C3E512648094B140F774B7857F
:0A10A70012F063F08095F040EBE5D5
:0B10B1001224CFFA25E02A9010BC7337
:0710BC000210D10210D60260
:0610C30010DB0210E00248
:0610C90010E50210EA022E
:0210CF0010EF20
:0510D1001210F480C5BF
:0510D60012114C80C066
:0510DB0012119580BB1D
:0510E00012127C80B635
:0510E50012140180B1AE
:0510EA0012146080AC4F
:0510EF001214E680A7C9
:0A10F40074EFC0E07416C0E07480D1
:0C10FE00C0E01203A71581158115817454
:0A110A001EC0E07417C0E07480C03E
:0A111400E01203A715811581158173
:08111E001200F6AA82BA6BF878
:0D11260075B0FF75A0FF7590FF7580FF90FC
:0E1133000001120D6A75B00075A000759000E5
:0B114100758000900001120D6A80DA3A
:0A114C0090174675F0801201087438
:0A1156007AC0E07417C0E07480C096
:0A116000E01203A715811581158127
:0E116A001200F6AA82BA6BF87410C0E074028C
:0D117800C0E0758208120AF1158115819002
:0C1185000064120D4C9017A375F080124E
:021191000BF45D
:0211930080FEDC
:0A119500C013E581F5132404F58171
:0C119F00A8130876C0E804F977F9740280
:0E11AB0028FAC000A80276A4D000740328FB26
:0E11B900C000A80376B0D0009017B575F08086
:0C11C700C002C003C000C0011201087487
:0A11D300FEC0E07417C0E07480C095
:0E11DD00E01203A7158115811581D001D00005
:0411EB00D003D0025B
:0E11EF00C002C003C000C0011200F6AC82D0E6
:0A11FD0001D000D003D002BC6BE863
:0E12070075800186A090000AC002C003C000DE
:0D121500C001120D3CD00175800287A09031
:0E122200000AC001120D3CD001D000D003D054
:0D12300002758004C000A80286A0D00090C6
:0E123D00000AC002C003C000C001120D3CD068
:0E124B0001D000D003D002758008C000A803B7
:0E12590086A0D00090000AC002C003C000C0F2
:0D12670001120D3CD001D000D003D00202D6
:061274001207851381D072
:02127A0013223D
:0A127C00C013E581F513240DF58180
:0A1286007427C0E07418C0E0748003
:0C129000C0E01203A715811581158174C0
:0A129C0049C0E07418C0E07480C07F
:0A12A600E01203A7158115811581E0
:0E12B0001200F6AA82BA6BF8120834E4C0E00D
:0E12BE007440C0E075821012084F1581158132
:0E12CC007415C0E07401C0E07582011208883C
:0412DA0015811581E4
:0A12DE00AA130A7B007C40E51324EC
:0C12E80002FDE5132407F8A605087600B7
:0C12F400087640E5132403FD7E007F40D7
:0C130000C002C003C004E5132407F8E697
:0E130C00C0E008E6C0E008E6C0E08D828E83F7
:0C131A008FF01208C1E58124FAF581E58E
:0A132600132406FA7B007C40E51357
:0C1330002405FDE5132407F8A605087647
:0C133C0000087640E5132404FD7E007FCD
:0C13480040C002C003C004E5132407F8F5
:0E135400E6C0E008E6C0E008E6C0E08D828E4C
:0D136200838FF012095DE58124FAF581E525
:0A136F00132406F886027B00E51344
:0C1379002405F886047D00E5132404F828
:0B138500E5132407F9E6F7097700A83C
:0A1390001308E513240AF9E6F70933
:0A139A007700A8130808E513240CDF
:0C13A400F9E6F7097700E5132403F8864A
:0C13B000067F00C002C003C004C005E5B9
:0C13BC00132407F8E6C0E008E6C0E0E5F6
:0C13C80013240AF8E6C0E008E6C0E0E5E7
:0C13D40013240CF8E6C0E008E6C0E0C0FE
:0A13E00006C0077473C0E07418C063
:0E13EA00E07480C0E01203A7E58124F1F581D4
:0713F8000212DE851381D013
:0213FF001322B7
:0A1401007499C0E07418C0E0748014
:0C140B00C0E01203A71581158115817443
:0A141700B9C0E07418C0E07480C092
:0A142100E01203A715811581158163
:0E142B001200F6AA82BA6BF89018E075F080F5
:0E1439001201087582581200FF7458C0E0902E
:0E1447000000120F2515819018F175F080122B
:091455000108900000120F6C0266
:02145E0000FF8D
:0A1460007401C0E07419C0E074804C
:0C146A00C0E01203A715811581158174E4
:0A1476007FC0E07419C0E07480C06C
:0A148000E01203A715811581158104
:0B148A001200F6AA82BA6BF8120D885F
:0E149500758200120D98AA82AB83758201C089
:0E14A30002C003120D98AC82AD83758202C0A8
:0E14B10004C005120D98AE82AF83D005D004A2
:0E14BF00D003D002C006C007C004C005C002A2
:0A14CD00C00374A7C0E07419C0E06A
:0E14D7007480C0E01203A7E58124F7F5818040
:0114E500AF57
:0A14E60074C4C0E07419C0E0748003
:0C14F000C0E01203A7158115811581745E
:0A14FC007FC0E07419C0E07480C0E6
:0A150600E01203A71581158115817D
:0B1510001200F6AA82BA6BF8120E005F
:0C151B00120E3EAA827B00C002C00374C6
:0A152700DAC0E07419C0E07480C05F
:0C153100E01203A7E58124FBF58180DEB9
:0E1653000A0D54657374206D656E7520557414
:0E1661007261207835312076312E310D0A204D
:0E166F00313A4750494F20426C696E6B0D0AAC
:0E167D0020323A4C4344200A0D20333A372DD8
:0E168B005365676D656E740A0D20343A525433
:0E169900430A0D20353A454550524F4D0A0D7B
:0E16A70020363A4144430A0D20373A4B65790C
:0E16B500706164200A0D20456E746572206F0E
:0716C3007074696F6E3A00BC
:0E16CA000A0D52657365742074686520626FA6
:0E16D8006172642061667465722074657374BB
:0916E60020697320646F6E650039
:0E16EF000A0D436F6E6E65637420616E792084
:0E16FD00494F2050696E7320746F2062757A19
:0E170B007A65722C2072656C6179732C206CEB
:0517190065647320006F
:0E171E000A0D4D616B6520636F6E6E6563741E
:0E172C00696F6E7320616E64206869742027F7
:0C173A006B2720746F207465737420000E
:0E1746000A0D204C43442044617461427573C7
:0E1754003A20503220436F6E74726F6C3A2050
:0E17620052532D50302E302052572D50302E25
:0A1770003120452D50302E322000AC
:0E177A000A0D204D616B6520636F6E6E656316
:0E17880074696F6E7320616E6420686974204E
:0D179600276B2720746F207465737420008A
:0E17A3004578706C6F726520456D62656464F8
:0417B100656421004A
:0E17B5000A0D205365676D656E7420446174E3
:0E17C300614275733A205032205365672073DF
:0E17D100656C6563743A2053312D3E50302E06
:0E17DF00302053322D3E50302E312053332D0A
:0E17ED003E50302E322053342D3E50302E34DC
:0317FB00202000AB
:0E17FE000A0D4D616B6520636F6E6E6563743E
:0E180C00696F6E7320616E6420686974202716
:0D181A006B2720746F20746573742120000B
:0E1827000A0D436F6E6E656374696F6E7320F9
:0E18350053434C2D3E50302E36205344412D4F
:061843003E50302E37007C
:0E1849000A0D204D616B6520636F6E6E656346
:0E18570074696F6E7320616E6420686974207E
:0E186500276B2720746F207465737421200098
:0E1873000A0D74696D653A2532783A2532788F
:0E1881003A25327820200A446174653A2532F7
:0A188F00782F2532782F25327800DB
:0E189900436F6E6E656374696F6E7320534308
:0E18A7004C2D3E50302E36205344412D3E50E5
:0418B500302E37009A
:0E18B9004D616B6520636F6E6E656374696FC1
:0E18C7006E7320616E642068697420276B27A1
:0B18D50020746F2074657374212000E4
:0E18E0000A0D456570726F6D20577269746550
:0318EE003A20009D
:0E18F1002020456570726F6D20526561643A6B
:0218FF002000C7
:0E1901000A0D436F6E6E656374696F6E733A04
:0E190F00204461746142757320503120436F93
:0E191D006E74726F6C3A206164635F412D3E00
:0E192B0050302E30206164635F422D3E5030FC
:0E1939002E31206164635F432D3E50302E320C
:0E194700206164635F414C452D3E502E3320DD
:0E1955006164635F53746172742D3E502E34D2
:0E196300206164635F454F432D3E50312E35A9
:0E197100206164635F4F452D3E50312E3600DD
:0E197F000A0D4D616B6520636F6E6E656374BB
:0E198D00696F6E7320616E6420686974202794
:0C199B006B2720746F20746573742100AA
:0E19A7000A0D74656D703A25336420706F74FC
:0E19B5003A253364206C696768743A25336400
:0119C3000023
:0E19C4000A0D436F6E6E656374696F6E733A41
:0819D20020506F7274203200F6
:0A19DA000A0D204B65793A256300E1
:06003700E478FFF6D8FD9D
:080015007900E94400601B7A48
:05001D00009019E478D9
:030022000075A0C6
:0A00250000E493F2A308B8000205FE
:08002F00A0D9F4DAF275A0FF7C
:0E153D0020F71030F6118883A88220F507F6FB
:05154B00A88375830078
:011550002278
:03155100F280F72E
:02155400F02283
:08003D007800E84400600A7934
:030045000075A0A3
:0600480000E4F309D8FCFE
:08004E007800E84400600C7921
:0B00560000900000E4F0A3D8FCD9FAF1
:06155600FBE58124FBF817
:0A155C00E6F9087A20E4FCFDFEFF2A
:0E156600E5822582F582E58333F583E5F033D7
:0B157400F5F0EB33FB4017DAE9804292
:0E157F00E5822582F582E58333F583E5F033BE
:05158D00F5F0EB33FB5B
:0E159200EC33FCED33FDEE33FEEF33FFEC994E
:0E15A000ED96EE0896EF089618184013EC9999
:0E15AE00FCED96FDEE0896FEEF0896FF18186D
:0315BC0043820166
:0215BF00DABE92
:0215C100EB221B
:03000800758113EC
:0A000B0012164FE5826003020003A5
:0E15C30020F71430F6148883A88220F507E67E
:0615D100A88375830022CF
:0315D700E280F7B8
:0315DA00E4932275
:0215DD00E0220A
:0E15DF00AAF0FB74FB2581F8E58286F0A9F0E6
:0E15ED0008A4FCADF0E58389F0A42DFDE435E3
:0E15FB00F0FEE58286F0A42DFDE5F03EFEE454
:0E16090033FFEA89F0A42EFEE5F03FFFE583F3
:0E16170086F0A42EFEE5F03FFFE5820886F087
:0E162500A42EFEE5F03FFFEB89F0A42FFFE5B9
:0E1633008386F0A42FFFEA1886F0A42FFFE5AF
:0E16410082080886F0A42F8EF08D838C822202
:04164F00758200227E
:00000001FF
