:1017DA005380EF5380F75380BF43804075A0FF22A8
:1011C800EF30E00543800180035380FEEF30E105F6
:1011D80043800280035380FDEF30E20543800480A2
:1011E800035380FB4380087F327E001217EA438056
:1011F800107F197E001217EA5380F77F327E0012A3
:1012080017EA5380EFE58030E5047F0180027F0014
:10121800EF60F24380407F197E001217EAAFA07E8C
:04122800005380BF30
:01122C00229F
:0C17EA00EF4E6007EF1F70F81E80F52224
:10178400AD07AC06ED4C600E7F707E001217EAEDDB
:071794001D70F11C80EE2224
:10179B00AB07AA06EB4A600E7FE87E03121784EBB9
:0717AB001B70F11A80EE2211
:021561008D0BF0
:10156300750DA0C3EE94085026EFF50CAF06EE25DB
:10157300E0420D12169DAF0D1216DDAF0C1216DDF3
:0F158300AF0B1216DD12171B7F0A7E00121784A2
:011592002236
:1013E300E4F50C750DA0C3EE94085033EFF50BAF85
:1013F30006EE25E0420D12169DAF0D1216DDAF0B62
:101403001216DD12169DE50D4401FF1216DDE4FFF1
:101413001214A98F0C12171B7F0A7E001217EAAF52
:011423000CBC
:0114240022A5
:100DD000EF131313541FFE53070714602D14604ABA
:100DE00014606724036003020E69ED600E7401A8AD
:100DF00007088002C333D8FC4280227401A8070888
:100E00008002C333D8FCF4528022ED600E7401A836
:100E100007088002C333D8FC4290227401A8070857
:100E20008002C333D8FCF4529022ED600E7401A806
:100E300007088002C333D8FC42A0227401A8070827
:100E40008002C333D8FCF452A022ED600E7401A8D6
:100E500007088002C333D8FC42B0227401A80708F7
:090E60008002C333D8FCF452B047
:010E69002266
:020BEC00AD0753
:100BEE00E4FCED131313541FFF53050714602E146A
:100BFE00604C14606A24036003020C9074017E0042
:100C0E00A805088005C333CE33CED8F9FFAB80EFED
:100C1E005B60047F0180027F00AC07806574017EFB
:100C2E0000A805088005C333CE33CED8F9FFAB90AC
:100C3E00EF5B60047F0180027F00AC07804474018B
:100C4E007E00A805088005C333CE33CED8F9FFAB9E
:100C5E00A0EF5B60047F0180027F00AC078023AFB2
:100C6E000574017E00A807088005C333CE33CED8A5
:100C7E00F9FFADB0EDFBEF5B60047F0180027F00FA
:040C8E00AC07AF04FC
:010C9200223F
:011842002283
:10169D00C286D2877F017E001217EAD2867F017E35
:1016AD00001217EAC2877F017E001217EAC2862256
:10171B00C2867F017E001217EAC2877F017E00120C
:0E172B0017EAD2867F017E001217EAD28722CB
:0216DD008F126A
:1016DF00E4F513E5123392871217C7E51225E0F5EB
:0D16EF00120513E513C3940840E90217C764
:0214A9008F12A0
:1014AB00E4F514D287F5137F017E001217EAD2867A
:1014BB007F017E001217EAE51425E0F514A287E4FC
:1014CB00334214C2860513E513C3940840D9E512C1
:0D14DB00B40105121817800312181FAF147A
:0114E80022E1
:1017C7007F017E001217EAD2867F017E001217EA98
:0317D700C28622A5
:08181700C2871217C7D2872215
:08181F00D2871217C7D28622FE
:04183E0075A0F0227F
:0B17F60075A0F0E5A054F0FFBFF0F577
:0118010022C4
:1016BD0075A0F0E5A054F0FF64F060F47F017E00AA
:0F16CD0012178475A0F0E5A054F0FF64F060E1FF
:0116DC0022EB
:101739007EFEE4FD8EA0E5A054F0FFBFF009EE2582
:09174900E004FE0DBD04EDAFA0AB
:011752002274
:100C93001217F67F017E001217841216BD12173940
:100CA3008F09E5091206E40D1A770D1F7B0D247DCC
:100CB3000D297E0D06B70D0BBB0D10BD0D15BE0C1A
:100CC300F2D70CF7DB0CFCDD0D01DE0CDEE70CE3E9
:100CD300EB0CE8ED0CEDEE00000D2E750943804E94
:100CE30075094480497509458044750946803F75F7
:100CF3000938803A7509398035750941803075099D
:100D030042802B7509348026750935802175093693
:100D1300801C750937801775093080127509318079
:100D23000D7509328008750933800375097AAF0997
:010D3300229D
:06183700045480C090D0B3
:100E6A008F088D098B0A85084985094A850A4B85A9
:100E7A000B4C850C4D850D4E850E4F850F508510F8
:100E8A0051851152851253E50BF4600FE50CF4609D
:100E9A000AE50DF46005E50EB4FF05754804801FE8
:100EAA00754808E4FDAF0B120DD0E4FDAF0C120D2E
:100EBA00D0E4FDAF0D120DD0E4FDAF0E120DD0E45B
:100ECA00FDAF08120DD0E4FDAF09120DD0E4FDAF5D
:100EDA000A120DD0E4FDAF0F120DD0E4FDAF1012CF
:100EEA000DD0E4FDAF11120DD0E4FDAF12020DD00A
:1014E9008D478F46EFD39402400DED540FFF2490A2
:1014F900F556EF24D0F5577F647E00121784E5482E
:10150900B408047F38800AE548B404081215257F19
:0C151900281215C17F0E1215C102180D1A
:0A180D007F011215C1E4FF0217B2BB
:1017B200EFC39546500EE4F5448F4574542FF8E676
:0517C200FF1215C12219
:101753000545E4F544E545C395464003E4F5457482
:09176300542545F8E6FF0215C10A
:1015C1008F0C121082E548AF0CB408051214678025
:1015D1000D121425121657E50CC454F0F50CAF0C7E
:0615E1001214250216574A
:1016FC008F0BE544C395475005E50BB40A0312174D
:0F170C0053E50B640A6007AF0B1215E705442283
:10160D008B088A09890AAB08AA09A90A1204C360C2
:10161D0013050AE50A7002050914F91204C3FF1235
:05162D0016FC80E22222
:101425008F0DE50D30E4047D0180027D00AF501283
:101435000DD0E50D30E5047D0180027D00AF511230
:101445000DD0E50D30E6047D0180027D00AF52121E
:101455000DD0E50D30E7047D0180027D00AF53021C
:021465000DD0A8
:101467008F0DE50D30E0047D0180027D00AF4C1249
:101477000DD0E50D30E1047D0180027D00AF4D12F6
:101487000DD0E50D30E2047D0180027D00AF4E12E4
:101497000DD0E50D30E3047D0180027D00AF4F02E2
:0214A7000DD066
:1015E7008F0C121082E548AF0CB4080512146780FF
:1015F7000D12142512167AE50CC454F0F50CAF0C35
:0616070012142502167A00
:10108200E54AF460637D01AF53120DD0E4FDAF4930
:10109200120DD07D01AF4A120DD0E4FDAF4B120DFF
:1010A200D07F0A7E001217EA7D01AF4B120DD07F6E
:1010B2000A7E001217EAAF53120BEC8F0DE548B40B
:1010C200041CE4FDAF4B120DD07F0A7E001217EA1A
:1010D2007D01AF4B120DD07F0A7E001217EAE50D9B
:0F10E20070B8FDAF53020DD07F017E001217844E
:0110F10022DC
:101525007F301214251216577F647E001217847FB0
:10153500301214251216577FC87E001217EA7F3025
:101545001214251216577FC87E001217EA7F201243
:0C15550014251216577FC87E000217EA0A
:10165700E4FDAF49120DD0E4FDAF4A120DD07D0174
:10166700AF4B120DD07F0A7E001217EAE4FDAF4B95
:03167700020DD091
:10167A007D01AF49120DD0E4FDAF4A120DD07D01B4
:10168A00AF4B120DD07F0A7E001217EAE4FDAF4B72
:03169A00020DD06E
:100003000A0D54657374206D656E752055747261A5
:10001300207835312076322E300D0A20313A475080
:10002300494F20426C696E6B0D0A20323A4C4344AF
:1000330020382D626974200A0D20333A4C43442042
:10004300342D6269740A0D20343A372D5365676D78
:10005300656E740A0D20353A5254430A0D20363A20
:10006300454550524F4D0A0D20373A4144430A0D3E
:1000730020383A4B6579706164200A0D20456E740F
:100083006572206F7074696F6E3A000A0D52657362
:1000930065742074686520626F61726420616674A0
:1000A3006572207465737420697320646F6E6500D4
:1000B3000A0D436F6E6E65637420616E7920494F3C
:1000C3002050696E7320746F2062757A7A65722C82
:1000D3002072656C6179732C206C65647320000A4F
:1000E3000D4D616B6520636F6E6E656374696F6E32
:1000F3007320616E642068697420276B2720746FF6
:10010300207465737420000A0D204C43442044611D
:1001130074614275733A20503220436F6E74726F6C
:100123006C3A2052532D50302E302052572D5030E0
:100133002E3120454E2D50302E3220000A0D204DF9
:10014300616B6520636F6E6E656374696F6E732098
:10015300616E642068697420276B2720746F207494
:1001630065737420004578706C6F726520456D620D
:100173006564646564004C636420382D626974208F
:100183004D6F6465000A0D204C4344204461746143
:100193004275733A205032204D7362206269747342
:1001A3002850322E342D50322E372920436F6E744F
:1001B300726F6C3A2052532D50302E302052572DEF
:1001C30050302E3120454E2D50302E3220004C63BE
:1001D3006420342D626974204D6F6465000A0D201C
:1001E3005365676D656E7420446174614275733A3B
:1001F300205032205365672073656C6563743A2021
:1002030053312D3E50302E302053322D3E50302E60
:10021300312053332D3E50302E322053342D3E5057
:10022300302E33000A0D4D616B6520636F6E6E6572
:100233006374696F6E7320616E642068697420272C
:100243006B2720746F20746573742120000A0D439B
:100253006F6E6E656374696F6E732053434C2D3EEE
:1002630050302E36205344412D3E50302E37000A55
:100273000D204D616B6520636F6E6E656374696FEE
:100283006E7320616E642068697420276B27207465
:100293006F20746573742120000A0D74696D653ACB
:1002A3002532783A2532783A25327820200A44617B
:1002B30074653A2532782F2532782F253278000A53
:1002C3000D456570726F6D2057726974653A200A27
:1002D300002020456570726F6D20526561643A207D
:1002E300000A0D436F6E6E656374696F6E733A2017
:1002F3004461746142757320503220436F6E74728F
:100303006F6C3A206164635F412D3E50302E302084
:100313006164635F422D3E50302E31206164635F20
:10032300432D3E50302E32206164635F414C452D96
:100333003E50302E33206164635F53746172742DB9
:100343003E50302E34206164635F454F432D3E5051
:10035300302E35206164635F4F452D3E50302E367D
:10036300000A0D4D616B6520636F6E6E6563746982
:100373006F6E7320616E642068697420276B272079
:10038300746F207465737421000A0D74656D703A7F
:1003930025336420706F743A253364206C69676871
:1003A300743A253364000A0D436F6E6E6563746996
:1003B3006F6E733A20506F72742032000A0D204B17
:0A03C30065793A256300F9A4B099AA
:101009007F807E257D007C001218027BFF7A0079A3
:10101900031216327BFF7A00798E121632121827C4
:101029008F58E55824CFB4080050F790104275F056
:1010390003A4C58325F0C5837302105A02105F0209
:10104900106402106902106E021073021078021007
:101059007D120B1F80CC12122D80C712128F80C2F5
:1010690012116280BD1210F280B812139780B31268
:09107900134480AE12159380A906
:100B1F00750A00750B017BFF7A0079B31207657BAD
:100B2F00FF7A0079E2120765121827BF6BFAE4F516
:100B3F0008F50975B0FF75A0FF7590FF7580FF7FF1
:100B4F00647E00121784E4F5B0F5A0F590F5807F70
:100B5F0064FE1217840509E50970020508C39402A3
:100B6F00E508940040CD750A00750B01E4F508F512
:100B7F0009AF0B8FB08FA08F908F807F647E001294
:100B8F001784E50B25E0F50BE50A33F50A0509E5B2
:100B9F000970020508C39408E508940040D3750A4C
:100BAF0000750B80E4F508F509C3E5099408E5081D
:100BBF0094004003020B3DAF0B8FB08FA08F908F2F
:100BCF00807F647E00121784E50AC313F50AE50BD4
:0D0BDF0013F50B0509E50970D0050880CC61
:10122D007BFF7A01790A1216327BFF7A01793F1220
:10123D000765121827BF6BFA750B10750C11750D1C
:10124D0012750E13750F147510157511167512177D
:10125D007B027D01E4FF120E6A7D107F021214E9FC
:10126D007F647E001217847BFF7A01796812160D58
:10127D007F647E001217847BFF7A01797912160D37
:02128D0080FEE1
:10128F007BFF7A0179881216327BFF7A01793F1240
:10129F000765121827BF6BFA750BFF750CFF750DDD
:1012AF00FF750EFF750F1475101575111675121742
:1012BF007B027D01E4FF120E6A7D107F021214E99A
:1012CF007F647E001217847BFF7A01796812160DF6
:0B12DF007BFF7A0179D112160D80FE12
:1011620078087C007D007BFF7A0379C97E007F04CA
:1011720012049D7BFF7A0179E01216327BFF7A021C
:101182007927120765121827BF6BFAE4F5A0F580DC
:101192007580018508A07F0A7E001217EA75800219
:1011A2008509A07F0A7E001217EA758004850AA0CD
:1011B2007F0A7E001217EA758008850BA07F0A7EDF
:0611C200001217EA80CACA
:1010F2007BFF7A0279501207657BFF7A02797212BE
:101102000765121827BF6BFA12176C750A1075095A
:1011120040E4F508750C01750D01750E16750B0589
:10112200FB7A007908120F867B007A007908120D8B
:10113200347BFF7A02799C751200850A13751400BC
:10114200850915751600850817751800850C19751F
:101152001A00850D1B751C00850E1D12076580C8BF
:10139700E4F5087509587BFF7A0279501207657BD7
:1013A700FF7A027972120765121827BF6BFA7BFF63
:1013B7007A0279C2121632AF0912182FAF087E00CF
:1013C700AD091215617BFF7A0279D4121632AF0884
:0C13D7007E001213E38F0A12182F80D240
:101344007BFF7A0279E41207657BFF7A03796412E2
:101354000765121827BF6BFA1217DAE4FF1211C8D7
:101364008E088F097F011211C88E0C8F0D7F021217
:1013740011C88E0A8F0B7BFF7A03798C850812853E
:101384000913850C14850D15850A16850B1712078C
:031394006580C8A9
:101593007BFF7A0379A91207657BFF7A03796412CB
:1015A3000765121827BF6BFA12183E120C938F08A7
:0E15B3007BFF7A0379BF85081212076580ED71
:10176C0012184212169D7FD01216DD7F071216DD5D
:08177C00E4FF1216DD02171B49
:100F86008B0F8A10891112169D7FD01216DDE4FF91
:100F96001216DDAB0FAA10A9111204C3FF1216DD3B
:100FA600AB0FAA10A9119000011204DCFF1216DD86
:100FB600AB0FAA10A9119000021204DCFF1216DD75
:100FC600AB0FAA10A9119000031204DCFF1216DD64
:100FD600AB0FAA10A9119000041204DCFF1216DD53
:100FE600AB0FAA10A9119000051204DCFF1216DD42
:100FF600AB0FAA10A9119000061204DCFF1216DD31
:0310060002171BB3
:100D34008B0F8A10891112169D7FD01216DDE4FFE5
:100D44001216DD12171B12169D7FD11216DD7F01BC
:100D54001214A9AB0FAA10A911EF1205097F0112F1
:100D640014A9AB0FAA10A911900001EF12051B7F63
:100D7400011214A9AB0FAA10A911900002EF1205D9
:100D84001B7F011214A9AB0FAA10A911900003EF45
:100D940012051B7F011214A9AB0FAA10A911900010
:100DA40004EF12051B7F011214A9AB0FAA10A9119D
:100DB400900005EF12051BE4FF1214A9AB0FAA1053
:0C0DC400A911900006EF12051B02171B7E
:0B180200438920759850D28E0212EA34
:0812EA008F0B8E0A8D098C08A0
:1012F200E47F607E09FDFCAB0BAA0AA909A808C31A
:1013020012069340367F007EC27D017C00A808D37E
:101312001206935026E47F807E01FDFCA808120588
:1013220068A804A905AA06AB077F007EC07DA87C39
:10133200001205F31206858F0C8003750C5D850C77
:011342008D1D
:011343002287
:081827003098FDC298AF992230
:08182F008F993099FDC2992246
:101632008B338A348935AB33AA34A9351204C3609B
:10164200130535E5357002053414F91204C3FF128F
:05165200182F80E222C8
:0209ED008F3346
:1009EF00E4F539E5336402704FE5387003020B1EEE
:1009FF0014FF74017E00A807088005C333CE33CEE1
:100A0F00D8F9FFEE3395E0FDFCEF5537FFEE553685
:100A1F00FEED5535FDEC5534FCE4FBFAF9F8C31245
:100A2F00069360047F0180027F008F39E5392430FF
:100A3F00FF12182F153880B1E4FFFEFDFCAB37AA6B
:100A4F0036A935A834C3120693701FF539E539C39B
:100A5F0095384003020B1EE539C3940A4003020B7D
:100A6F001E7F3012182F053980E3E4F539E539C3BD
:100A7F009538507CE4FFFEFDFCAB37AA36A935A8AC
:100A8F0034C31206936051AF33AB07E4FAF9F8AFF2
:100A9F0037AE36AD35AC341205F3A804A905AA0656
:100AAF00AB07AF33E4FCFDFE120568C3E5379FFFCC
:100ABF00743A2539F8A607AF37AE36AD35AC34C02A
:100ACF0007AF33AB07E4FAF9F8D0071205F38F3706
:100ADF008E368D358C348013E538F46013E538D3BA
:100AEF00940A500C743A2539F8E4F60539020A7C59
:100AFF00E539601B2439F8E6FFD394094006EF244B
:0F0B0F0037FF8004E62430FF12182F153980E1DC
:010B1E0022B4
:060765008B0F8A108911C0
:10076B007524007525007526128B218A228923ABEF
:10077B0021AA22A9231204C3FF70030209ECF5314D
:10078B00642560030209D9042523F523E43522F5FA
:10079B0022FAA9231204C3F531C3648094B04043F9
:1007AB00D3E531648094B9503AE4F532C3E5316452
:1007BB008094B04031D3E531648094B95028E53151
:1007CB0024D0FFE53275F00AA42FF53274012523EE
:1007DB00F523E43522F522AB21FAA9231204C3F544
:1007EB003180C97532FFE5311206E409D52509843C
:1007FB004208214308704409BD5308D255092858B3
:10080B0009526208216308386409BD7308AD750885
:10081B00FD78000009DEAB240526E526AA2570022B
:10082B00052514F91204C3F531FF0209DBAB24E5EE
:10083B0026F92402F526E525FA3400F52512053DA7
:10084B00FDACF0C3EC64809480500CC3E49DFDE4DC
:10085B009CFC7F2D12182FAE04AF05EE3395E08F65
:10086B00378E36805CAB24E526F92404F526E52586
:10087B00FA3400F5251206A48F2A8E298D288C2791
:10088B00EC3350101206858F2A8E298D288C277FEA
:10089B002D12182F852A378529368528358527343B
:1008AB008048AB24E526F92402F526E525FA340029
:1008BB00F52512053DF52C85F02BFFE48F37852BA5
:1008CB0036F535F5348023AB24E526F92404F526DB
:1008DB00E525FA3400F5251206A48F308E2F8D2EC8
:1008EB008C2D8F378E368D358C348532387F0A02BE
:1008FB0009B8AB24E526F92402F526E525FA3400E0
:10090B00F52512053DF52C85F02BFFE48F37852B54
:10091B0036F535F5348532387F100209B8AB24E54E
:10092B0026F92404F526E525FA3400F5251206A44C
:10093B008F308E2F8D2E8C2D8F378E368D358C34B0
:10094B008532387F108066AB24E526F92402F52624
:10095B00E525FA3400F52512053DF52C85F02BE540
:10096B0032B4FF03753210E4852C37852B36F53501
:10097B00F5348532387F028034AB24E526F9240424
:10098B00F526E525FA3400F5251206A48F308E2FB7
:10099B008D2E8C2DE532B4FF0375322085303785D3
:1009AB002F36852E35852D348532387F021209ED91
:1009BB008021AB24E526F92403F526E525FA34003E
:1009CB00F5251206C412163280097F258002AF313D
:1009DB0012182F74012523F523E43522F522020783
:0109EB007A91
:0109EC0022E8
:03000000020EFAF3
:0C0EFA00787FE4F6D8FD758158020F41A6
:1003CD00E709F608DFFA8046E709F208DFFA803E12
:1003DD0088828C83E709F0A3DFFA8032E309F608FF
:1003ED00DFFA8078E309F208DFFA807088828C8367
:1003FD00E309F0A3DFFA806489828A83E0A3F6081B
:10040D00DFFA805889828A83E0A3F208DFFA804CF4
:10041D0080D280FA80C680D4806980F280338010CB
:10042D0080A680EA809A80A880DA80E280CA803334
:10043D0089828A83ECFAE493A3C8C582C8CCC583AC
:10044D00CCF0A3C8C582C8CCC583CCDFE9DEE7807C
:10045D000D89828A83E493A3F608DFF9ECFAA9F0FB
:10046D00EDFB2289828A83ECFAE0A3C8C582C8CC51
:10047D00C583CCF0A3C8C582C8CCC583CCDFEADE6A
:10048D00E880DB89828A83E493A3F208DFF980CCCC
:10049D0088F0EF60010E4E60C388F0ED2402B404C5
:1004AD000050B9F582EB2402B4040050AF2323456C
:0604BD00822390041D7370
:1004C300BB010689828A83E0225002E722BBFE0237
:0904D300E32289828A83E493226A
:1004DC00BB010CE58229F582E5833AF583E02250D5
:1004EC0006E92582F8E622BBFE06E92582F8E2221F
:0D04FC00E58229F582E5833AF583E4932239
:10050900BB010689828A83F0225002F722BBFE01D1
:02051900F322CB
:10051B00F8BB010DE58229F582E5833AF583E8F016
:10052B00225006E92582C8F622BBFE05E92582C8C2
:02053B00F222AA
:10053D00BB010A89828A83E0F5F0A3E02250068789
:10054D00F009E71922BBFE07E3F5F009E31922894B
:0B055D00828A83E493F5F0740193227E
:10056800E88FF0A4CC8BF0A42CFCE98EF0A42CFC32
:100578008AF0EDA42CFCEA8EF0A4CDA8F08BF0A4B0
:100588002DCC3825F0FDE98FF0A42CCD35F0FCEB0F
:100598008EF0A4FEA9F0EB8FF0A4CFC5F02ECD39D4
:0F05A800FEE43CFCEAA42DCE35F0FDE43CFC2241
:1005B70075F008758200EF2FFFEE33FECD33CDCCFB
:1005C70033CCC58233C5829BED9AEC99E58298407E
:1005D7000CF582EE9BFEED9AFDEC99FC0FD5F0D65B
:1005E700E4CEFBE4CDFAE4CCF9A88222B800C1B985
:1005F7000059BA002DEC8BF084CFCECDFCE5F0CBC3
:10060700F97818EF2FFFEE33FEED33FDEC33FCEBFB
:1006170033FB10D703994004EB99FB0FD8E5E4F9B6
:10062700FA227818EF2FFFEE33FEED33FDEC33FCA3
:10063700C933C910D7059BE99A4007EC9BFCE99A97
:10064700F90FD8E0E4C9FAE4CCFB2275F010EF2FDC
:10065700FFEE33FEED33FDCC33CCC833C810D707DC
:100667009BEC9AE899400AED9BFDEC9AFCE899F817
:0E0677000FD5F0DAE4CDFBE4CCFAE4C8F922AA
:0E068500C3E49FFFE49EFEE49DFDE49CFC2286
:10069300EB9FF5F0EA9E42F0E99D42F0E89C45F0BD
:0106A3002234
:1006A400BB010789828A830207165005E9F802070D
:1006B4000ABBFE05E9F802072289828A8302072E13
:1006C400BB010789828A830207475005E9F80207BC
:1006D4003EBBFE05E9F802075089828A8302075966
:1006E400D083D082F8E4937012740193700DA3A3A5
:1006F40093F8740193F5828883E4737402936860B9
:06070400EFA3A3A380DFB8
:100F0600021009E493A3F8E493A34003F68001F2E8
:100F160008DFF48029E493A3F85407240CC8C333EC
:100F2600C4540F4420C8834004F456800146F6DFBB
:100F3600E4800B0102040810204080901837E47EFC
:100F4600019360BCA3FF543F30E509541FFEE493B0
:100F5600A360010ECF54C025E060A840B8E493A377
:100F6600FAE493A3F8E493A3C8C582C8CAC583CAA2
:100F7600F0A3C8C582C8CAC583CADFE9DEE780BE5A
:01183D0000AA
:0C070A00E6FC08E6FD08E6FE08E6FF221B
:0C071600E0FCA3E0FDA3E0FEA3E0FF2256
:0C072200E2FC08E2FD08E2FE08E2FF2213
:10072E00E493FC740193FD740293FE740393FF2211
:09073E00E6FB08E6FA08E6F922E0
:09074700E0FBA3E0FAA3E0F922B3
:09075000E2FB08E2FA08E2F922DA
:0C075900E493FB740193FA740293F922FC
:00000001FF
