:1017DC005380EF5380F75380BF43804075A0FF22A6
:1011C800EF30E00543800180035380FEEF30E105F6
:1011D80043800280035380FDEF30E20543800480A2
:1011E800035380FB4380087F327E001217EC438054
:1011F800107F197E001217EC5380F77F327E0012A1
:1012080017EC5380EFE58030E5047F0180027F0012
:10121800EF60F24380407F197E001217ECAFA07E8A
:04122800005380BF30
:01122C00229F
:0C17EC00EF4E6007EF1F70F81E80F52222
:10178600AD07AC06ED4C600E7F707E001217ECEDD7
:071796001D70F11C80EE2222
:10179D00AB07AA06EB4A600E7FE87E03121786EBB5
:0717AD001B70F11A80EE220F
:021561008D0BF0
:10156300750DA0C3EE94085026EFF50CAF06EE25DB
:10157300E0420D12169FAF0D1216DFAF0C1216DFED
:0F158300AF0B1216DF12171D7F0A7E001217869C
:011592002236
:1013E300E4F50C750DA0C3EE94085033EFF50BAF85
:1013F30006EE25E0420D12169FAF0D1216DFAF0B5E
:101403001216DF12169FE50D4401FF1216DFE4FFEB
:101413001214A98F0C12171D7F0A7E001217ECAF4E
:011423000CBC
:0114240022A5
:100DD000EF131313541FFE53070714602D14604ABA
:100DE00014606724036003020E69ED600E7401A8AD
:100DF00007088002C333D8FC4280227401A8070888
:100E00008002C333D8FCF4528022ED600E7401A836
:100E100007088002C333D8FC4290227401A8070857
:100E20008002C333D8FCF4529022ED600E7401A806
:100E300007088002C333D8FC42A0227401A8070827
:100E40008002C333D8FCF452A022ED600E7401A8D6
:100E500007088002C333D8FC42B0227401A80708F7
:090E60008002C333D8FCF452B047
:010E69002266
:020BEC00AD0753
:100BEE00E4FCED131313541FFF53050714602E146A
:100BFE00604C14606A24036003020C9074017E0042
:100C0E00A805088005C333CE33CED8F9FFAB80EFED
:100C1E005B60047F0180027F00AC07806574017EFB
:100C2E0000A805088005C333CE33CED8F9FFAB90AC
:100C3E00EF5B60047F0180027F00AC07804474018B
:100C4E007E00A805088005C333CE33CED8F9FFAB9E
:100C5E00A0EF5B60047F0180027F00AC078023AFB2
:100C6E000574017E00A807088005C333CE33CED8A5
:100C7E00F9FFADB0EDFBEF5B60047F0180027F00FA
:040C8E00AC07AF04FC
:010C9200223F
:011844002281
:10169F00C286D2877F017E001217ECD2867F017E31
:1016AF00001217ECC2877F017E001217ECC2862250
:10171D00C2867F017E001217ECC2877F017E001208
:0E172D0017ECD2867F017E001217ECD28722C5
:0216DF008F1268
:1016E100E4F513E5123392871217C9E51225E0F5E7
:0D16F100120513E513C3940840E90217C960
:0214A9008F12A0
:1014AB00E4F514D287F5137F017E001217ECD28678
:1014BB007F017E001217ECE51425E0F514A287E4FA
:1014CB00334214C2860513E513C3940840D9E512C1
:0D14DB00B401051218198003121821AF1476
:0114E80022E1
:1017C9007F017E001217ECD2867F017E001217EC92
:0317D900C28622A3
:08181900C2871217C9D2872211
:08182100D2871217C9D28622FA
:0418400075A0F0227D
:0B17F80075A0F0E5A054F0FFBFF0F575
:0118030022C2
:1016BF0075A0F0E5A054F0FF64F060F47F017E00A8
:0F16CF0012178675A0F0E5A054F0FF64F060E1FB
:0116DE0022E9
:10173B007EFEE4FD8EA0E5A054F0FFBFF009EE2580
:09174B00E004FE0DBD04EDAFA0A9
:011754002272
:100C93001217F87F017E001217861216BF12173B38
:100CA3008F09E5091206E20D1A770D1F7B0D247DCE
:100CB3000D297E0D06B70D0BBB0D10BD0D15BE0C1A
:100CC300F2D70CF7DB0CFCDD0D01DE0CDEE70CE3E9
:100CD300EB0CE8ED0CEDEE00000D2E750943804E94
:100CE30075094480497509458044750946803F75F7
:100CF3000938803A7509398035750941803075099D
:100D030042802B7509348026750935802175093693
:100D1300801C750937801775093080127509318079
:100D23000D7509328008750933800375097AAF0997
:010D3300229D
:06183900045480C090D0B1
:100E6A008F088D098B0A85084985094A850A4B85A9
:100E7A000B4C850C4D850D4E850E4F850F508510F8
:100E8A0051851152851253E50BF4600FE50CF4609D
:100E9A000AE50DF46005E50EB4FF05754804801FE8
:100EAA00754808E4FDAF0B120DD0E4FDAF0C120D2E
:100EBA00D0E4FDAF0D120DD0E4FDAF0E120DD0E45B
:100ECA00FDAF08120DD0E4FDAF09120DD0E4FDAF5D
:100EDA000A120DD0E4FDAF0F120DD0E4FDAF1012CF
:100EEA000DD0E4FDAF11120DD0E4FDAF12020DD00A
:1014E9008D478F46EFD39402400DED540FFF2490A2
:1014F900F556EF24D0F5577F647E00121786E5482C
:10150900B408047F38800AE548B404081215257F19
:0C151900281215C37F0E1215C302180F14
:0A180F007F011215C3E4FF0217B4B5
:1017B400EFC39546500EE4F5448F4574542FF8E674
:0517C400FF1215C32215
:101755000545E4F544E545C395464003E4F5457480
:09176500542545F8E6FF0215C306
:1015C3008F0C121082E548AF0CB408051214678023
:1015D3000D121425121659E50CC454F0F50CAF0C7A
:0615E30012142502165946
:1016FE008F0BE544C395475005E50BB40A0312174B
:0F170E0055E50B640A6007AF0B1215E90544227D
:10160F008B088A09890AAB08AA09A90A1204C160C2
:10161F0013050AE50A7002050914F91204C1FF1235
:05162F0016FE80E2221E
:101425008F0DE50D30E4047D0180027D00AF501283
:101435000DD0E50D30E5047D0180027D00AF511230
:101445000DD0E50D30E6047D0180027D00AF52121E
:101455000DD0E50D30E7047D0180027D00AF53021C
:021465000DD0A8
:101467008F0DE50D30E0047D0180027D00AF4C1249
:101477000DD0E50D30E1047D0180027D00AF4D12F6
:101487000DD0E50D30E2047D0180027D00AF4E12E4
:101497000DD0E50D30E3047D0180027D00AF4F02E2
:0214A7000DD066
:1015E9008F0C121082E548AF0CB4080512146780FD
:1015F9000D12142512167CE50CC454F0F50CAF0C31
:0616090012142502167CFC
:10108200E54AF460637D01AF53120DD0E4FDAF4930
:10109200120DD07D01AF4A120DD0E4FDAF4B120DFF
:1010A200D07F0A7E001217EC7D01AF4B120DD07F6C
:1010B2000A7E001217ECAF53120BEC8F0DE548B409
:1010C200041CE4FDAF4B120DD07F0A7E001217EC18
:1010D2007D01AF4B120DD07F0A7E001217ECE50D99
:0F10E20070B8FDAF53020DD07F017E001217864C
:0110F10022DC
:101525007F301214251216597F647E001217867FAC
:10153500301214251216597FC87E001217EC7F3021
:101545001214251216597FC87E001217EC7F20123F
:0C15550014251216597FC87E000217EC06
:10165900E4FDAF49120DD0E4FDAF4A120DD07D0172
:10166900AF4B120DD07F0A7E001217ECE4FDAF4B91
:03167900020DD08F
:10167C007D01AF49120DD0E4FDAF4A120DD07D01B2
:10168C00AF4B120DD07F0A7E001217ECE4FDAF4B6E
:03169C00020DD06C
:100003000A0D54657374206D656E752055747261A5
:10001300207835312076322E300D0A20313A475080
:10002300494F20426C696E6B0D0A20323A4C4344AF
:1000330020382D626974200A0D20333A4C43442042
:10004300342D6269740A0D20343A372D5365676D78
:10005300656E740A0D20353A5254430A0D20363A20
:10006300454550524F4D0A0D20373A4144430A0D3E
:1000730020383A4B6579706164200A0D20456E740F
:100083006572206F7074696F6E3A000A0D52657362
:1000930065742074686520626F61726420616674A0
:1000A3006572207465737420697320646F6E6500D4
:1000B3000A0D436F6E6E65637420616E7920494F3C
:1000C3002050696E7320746F2062757A7A65722C82
:1000D3002072656C6179732C206C65647320000A4F
:1000E3000D4D616B6520636F6E6E656374696F6E32
:1000F3007320616E642068697420276B2720746FF6
:10010300207465737420000A0D204C43442044611D
:1001130074614275733A20503220436F6E74726F6C
:100123006C3A2052532D50302E302052572D5030E0
:100133002E3120454E2D50302E3220000A0D204DF9
:10014300616B6520636F6E6E656374696F6E732098
:10015300616E642068697420276B2720746F207494
:1001630065737420004578706C6F726520456D620D
:100173006564646564004C636420382D626974208F
:100183004D6F6465000A0D204C4344204461746143
:100193004275733A205032204D7362206269747342
:1001A3002850322E342D50322E372920436F6E744F
:1001B300726F6C3A2052532D50302E302052572DEF
:1001C30050302E3120454E2D50302E3220004C63BE
:1001D3006420342D626974204D6F6465000A0D201C
:1001E3005365676D656E7420446174614275733A3B
:1001F300205032205365672073656C6563743A2021
:1002030053312D3E50302E302053322D3E50302E60
:10021300312053332D3E50302E322053342D3E5057
:10022300302E33000A0D4D616B6520636F6E6E6572
:100233006374696F6E7320616E642068697420272C
:100243006B2720746F20746573742120000A0D439B
:100253006F6E6E656374696F6E732053434C2D3EEE
:1002630050302E36205344412D3E50302E37000A55
:100273000D204D616B6520636F6E6E656374696FEE
:100283006E7320616E642068697420276B27207465
:100293006F20746573742120000A0D74696D653ACB
:1002A3002532783A2532783A25327820200A44617B
:1002B30074653A2532782F2532782F253278000A53
:1002C3000D456570726F6D2057726974653A200A27
:1002D300002020456570726F6D20526561643A207D
:1002E300000A0D436F6E6E656374696F6E733A2017
:1002F3004461746142757320503220436F6E74728F
:100303006F6C3A206164635F412D3E50302E302084
:100313006164635F422D3E50302E31206164635F20
:10032300432D3E50302E32206164635F414C452D96
:100333003E50302E33206164635F53746172742DB9
:100343003E50302E34206164635F454F432D3E5051
:10035300302E35206164635F4F452D3E50302E367D
:10036300000A0D4D616B6520636F6E6E6563746982
:100373006F6E7320616E642068697420276B272079
:10038300746F207465737421000A0D74656D703A7F
:1003930025336420706F743A253364206C69676871
:1003A300743A253364000A0D436F6E6E6563746996
:1003B3006F6E733A20506F72742032000A0D204B17
:0803C30065793A00F9A4B09934
:101009007F807E257D007C001218047BFF7A0079A1
:10101900031216347BFF7A00798E121634121829BE
:101029008F58E55824CFB4080050F790104275F056
:1010390003A4C58325F0C5837302105A02105F0209
:10104900106402106902106E021073021078021007
:101059007D120B1F80CC12122D80C712128F80C2F5
:1010690012116280BD1210F280B812139780B31268
:09107900134480AE12159380A906
:100B1F00750A00750B017BFF7A0079B31207637BAF
:100B2F00FF7A0079E2120763121829BF6BFAE4F516
:100B3F0008F50975B0FF75A0FF7590FF7580FF7FF1
:100B4F00C87E00121786E4F5B0F5A0F590F5807F0A
:100B5F00C8FE1217860509E50970020508C394023D
:100B6F00E508940040CD750A00750B01E4F508F512
:100B7F0009AF0B8FB08FA08F908F807FC87E001230
:100B8F001786E50B25E0F50BE50A33F50A0509E5B0
:100B9F000970020508C39408E508940040D3750A4C
:100BAF0000750B80E4F508F509C3E5099408E5081D
:100BBF0094004003020B3DAF0B8FB08FA08F908F2F
:100BCF00807FC87E00121786E50AC313F50AE50B6E
:0D0BDF0013F50B0509E50970D0050880CC61
:10122D007BFF7A01790A1216347BFF7A01793F121E
:10123D000763121829BF6BFA750B10750C11750D1C
:10124D0012750E13750F147510157511167512177D
:10125D007B027D01E4FF120E6A7D107F021214E9FC
:10126D007F647E001217867BFF7A01796812160F54
:10127D007F647E001217867BFF7A01797912160F33
:02128D0080FEE1
:10128F007BFF7A0179881216347BFF7A01793F123E
:10129F000763121829BF6BFA750BFF750CFF750DDD
:1012AF00FF750EFF750F1475101575111675121742
:1012BF007B027D01E4FF120E6A7D107F021214E99A
:1012CF007F647E001217867BFF7A01796812160FF2
:0B12DF007BFF7A0179D112160F80FE10
:1011620078087C007D007BFF7A0379C77E007F04CC
:1011720012049B7BFF7A0179E01216347BFF7A021C
:101182007927120763121829BF6BFAE4F5A0F580DC
:101192007580018508A07F0A7E001217EC75800217
:1011A2008509A07F0A7E001217EC758004850AA0CB
:1011B2007F0A7E001217EC758008850BA07F0A7EDD
:0611C200001217EC80CAC8
:1010F2007BFF7A0279501207637BFF7A02797212C0
:101102000763121829BF6BFA12176E750A10750958
:1011120040E4F508750C01750D01750E16750B0589
:10112200FB7A007908120F867B007A007908120D8B
:10113200347BFF7A02799C751200850A13751400BC
:10114200850915751600850817751800850C19751F
:101152001A00850D1B751C00850E1D12076380C8C1
:10139700E4F5087509587BFF7A0279501207637BD9
:1013A700FF7A027972120763121829BF6BFA7BFF63
:1013B7007A0279C2121634AF09121831AF087E00CB
:1013C700AD091215617BFF7A0279D4121634AF0882
:0C13D7007E001213E38F0A12183180D23E
:101344007BFF7A0279E41207637BFF7A03796412E4
:101354000763121829BF6BFA1217DCE4FF1211C8D5
:101364008E088F097F011211C88E0C8F0D7F021217
:1013740011C88E0A8F0B7BFF7A03798C850812853E
:101384000913850C14850D15850A16850B1712078C
:031394006380C8AB
:101593007BFF7A0379A91207637BFF7A03796412CD
:1015A3000763121829BF6BFA121840120C938F08A5
:1015B3007BFF7A0379BF120763AF0812183180EB00
:10176E0012184412169F7FD01216DF7F071216DF53
:08177E00E4FF1216DF02171D43
:100F86008B0F8A10891112169F7FD01216DFE4FF8D
:100F96001216DFAB0FAA10A9111204C1FF1216DF39
:100FA600AB0FAA10A9119000011204DAFF1216DF86
:100FB600AB0FAA10A9119000021204DAFF1216DF75
:100FC600AB0FAA10A9119000031204DAFF1216DF64
:100FD600AB0FAA10A9119000041204DAFF1216DF53
:100FE600AB0FAA10A9119000051204DAFF1216DF42
:100FF600AB0FAA10A9119000061204DAFF1216DF31
:0310060002171DB1
:100D34008B0F8A10891112169F7FD01216DFE4FFE1
:100D44001216DF12171D12169F7FD11216DF7F01B4
:100D54001214A9AB0FAA10A911EF1205077F0112F3
:100D640014A9AB0FAA10A911900001EF1205197F65
:100D7400011214A9AB0FAA10A911900002EF1205D9
:100D8400197F011214A9AB0FAA10A911900003EF47
:100D94001205197F011214A9AB0FAA10A911900012
:100DA40004EF1205197F011214A9AB0FAA10A9119F
:100DB400900005EF120519E4FF1214A9AB0FAA1055
:0C0DC400A911900006EF12051902171D7E
:0B180400438920759850D28E0212EA32
:0812EA008F0B8E0A8D098C08A0
:1012F200E47F607E09FDFCAB0BAA0AA909A808C31A
:1013020012069140367F007EC27D017C00A808D380
:101312001206915026E47F807E01FDFCA80812058A
:1013220066A804A905AA06AB077F007EC07DA87C3B
:10133200001205F11206838F0C8003750C5D850C7B
:011342008D1D
:011343002287
:081829003098FDC298AF99222E
:081831008F993099FDC2992244
:101634008B338A348935AB33AA34A9351204C1609B
:10164400130535E5357002053414F91204C1FF128F
:05165400183180E222C4
:0209ED008F3346
:1009EF00E4F539E5336402704FE5387003020B1EEE
:1009FF0014FF74017E00A807088005C333CE33CEE1
:100A0F00D8F9FFEE3395E0FDFCEF5537FFEE553685
:100A1F00FEED5535FDEC5534FCE4FBFAF9F8C31245
:100A2F00069160047F0180027F008F39E539243001
:100A3F00FF121831153880B1E4FFFEFDFCAB37AA69
:100A4F0036A935A834C3120691701FF539E539C39D
:100A5F0095384003020B1EE539C3940A4003020B7D
:100A6F001E7F30121831053980E3E4F539E539C3BB
:100A7F009538507CE4FFFEFDFCAB37AA36A935A8AC
:100A8F0034C31206916051AF33AB07E4FAF9F8AFF4
:100A9F0037AE36AD35AC341205F1A804A905AA0658
:100AAF00AB07AF33E4FCFDFE120566C3E5379FFFCE
:100ABF00743A2539F8A607AF37AE36AD35AC34C02A
:100ACF0007AF33AB07E4FAF9F8D0071205F18F3708
:100ADF008E368D358C348013E538F46013E538D3BA
:100AEF00940A500C743A2539F8E4F60539020A7C59
:100AFF00E539601B2439F8E6FFD394094006EF244B
:0F0B0F0037FF8004E62430FF121831153980E1DA
:010B1E0022B4
:060763008B0F8A108911C2
:100769007524007525007526128B218A228923ABF1
:1007790021AA22A9231204C1FF70030209ECF53151
:10078900642560030209D9042523F523E43522F5FC
:1007990022FAA9231204C1F531C3648094B04043FD
:1007A900D3E531648094B9503AE4F532C3E5316454
:1007B9008094B04031D3E531648094B95028E53153
:1007C90024D0FFE53275F00AA42FF53274012523F0
:1007D900F523E43522F522AB21FAA9231204C1F548
:1007E9003180C97532FFE5311206E209D525098440
:1007F90042081F4308704409BD5308D255092858B7
:10080900095262081F6308386409BD7308AD750889
:10081900FD78000009DEAB24E526F92402F526E57A
:1008290025FA3400F52512053BF531FF0209DBAB4A
:1008390024E526F92402F526E525FA3400F52512E2
:10084900053BFDACF0C3EC64809480500CC3E49D7F
:10085900FDE49CFC7F2D121831AE04AF05EE3395F3
:10086900E08F378E36805CAB24E526F92404F52623
:10087900E525FA3400F5251206A28F2A8E298D283E
:100889008C27EC3350101206838F2A8E298D288CE1
:10089900277F2D121831852A3785293685283585F0
:1008A90027348048AB24E526F92402F526E525FA04
:1008B9003400F52512053BF52C85F02BFFE48F3725
:1008C900852B36F535F5348023AB24E526F9240448
:1008D900F526E525FA3400F5251206A28F308E2F6C
:1008E9008D2E8C2D8F378E368D358C348532387F11
:1008F9000A0209B8AB24E526F92402F526E525FA0A
:100909003400F52512053BF52C85F02BFFE48F37D4
:10091900852B36F535F5348532387F100209B8ABA9
:1009290024E526F92404F526E525FA3400F52512EF
:1009390006A28F308E2F8D2E8C2D8F378E368D35CA
:100949008C348532387F108066AB24E526F9240281
:10095900F526E525FA3400F52512053BF52C85F039
:100969002BE532B4FF03753210E4852C37852B361D
:10097900F535F5348532387F028034AB24E526F924
:100989002404F526E525FA3400F5251206A28F3050
:100999008E2F8D2E8C2DE532B4FF037532208530D4
:1009A90037852F36852E35852D348532387F0212CD
:1009B90009ED8021AB24E526F92403F526E525FA7E
:1009C9003400F5251206C212163480097F258002EB
:1009D900AF3112183174012523F523E43522F522AC
:0309E9000207788A
:0109EC0022E8
:03000000020EFAF3
:0C0EFA00787FE4F6D8FD758158020F41A6
:1003CB00E709F608DFFA8046E709F208DFFA803E14
:1003DB0088828C83E709F0A3DFFA8032E309F60801
:1003EB00DFFA8078E309F208DFFA807088828C8369
:1003FB00E309F0A3DFFA806489828A83E0A3F6081D
:10040B00DFFA805889828A83E0A3F208DFFA804CF6
:10041B0080D280FA80C680D4806980F280338010CD
:10042B0080A680EA809A80A880DA80E280CA803336
:10043B0089828A83ECFAE493A3C8C582C8CCC583AE
:10044B00CCF0A3C8C582C8CCC583CCDFE9DEE7807E
:10045B000D89828A83E493A3F608DFF9ECFAA9F0FD
:10046B00EDFB2289828A83ECFAE0A3C8C582C8CC53
:10047B00C583CCF0A3C8C582C8CCC583CCDFEADE6C
:10048B00E880DB89828A83E493A3F208DFF980CCCE
:10049B0088F0EF60010E4E60C388F0ED2402B404C7
:1004AB000050B9F582EB2402B4040050AF2323456E
:0604BB00822390041B7374
:1004C100BB010689828A83E0225002E722BBFE0239
:0904D100E32289828A83E493226C
:1004DA00BB010CE58229F582E5833AF583E02250D7
:1004EA0006E92582F8E622BBFE06E92582F8E22221
:0D04FA00E58229F582E5833AF583E493223B
:10050700BB010689828A83F0225002F722BBFE01D3
:02051700F322CD
:10051900F8BB010DE58229F582E5833AF583E8F018
:10052900225006E92582C8F622BBFE05E92582C8C4
:02053900F222AC
:10053B00BB010A89828A83E0F5F0A3E0225006878B
:10054B00F009E71922BBFE07E3F5F009E31922894D
:0B055B00828A83E493F5F07401932280
:10056600E88FF0A4CC8BF0A42CFCE98EF0A42CFC34
:100576008AF0EDA42CFCEA8EF0A4CDA8F08BF0A4B2
:100586002DCC3825F0FDE98FF0A42CCD35F0FCEB11
:100596008EF0A4FEA9F0EB8FF0A4CFC5F02ECD39D6
:0F05A600FEE43CFCEAA42DCE35F0FDE43CFC2243
:1005B50075F008758200EF2FFFEE33FECD33CDCCFD
:1005C50033CCC58233C5829BED9AEC99E582984080
:1005D5000CF582EE9BFEED9AFDEC99FC0FD5F0D65D
:1005E500E4CEFBE4CDFAE4CCF9A88222B800C1B987
:1005F5000059BA002DEC8BF084CFCECDFCE5F0CBC5
:10060500F97818EF2FFFEE33FEED33FDEC33FCEBFD
:1006150033FB10D703994004EB99FB0FD8E5E4F9B8
:10062500FA227818EF2FFFEE33FEED33FDEC33FCA5
:10063500C933C910D7059BE99A4007EC9BFCE99A99
:10064500F90FD8E0E4C9FAE4CCFB2275F010EF2FDE
:10065500FFEE33FEED33FDCC33CCC833C810D707DE
:100665009BEC9AE899400AED9BFDEC9AFCE899F819
:0E0675000FD5F0DAE4CDFBE4CCFAE4C8F922AC
:0E068300C3E49FFFE49EFEE49DFDE49CFC2288
:10069100EB9FF5F0EA9E42F0E99D42F0E89C45F0BF
:0106A1002236
:1006A200BB010789828A830207145005E9F8020711
:1006B20008BBFE05E9F802072089828A8302072C1B
:1006C200BB010789828A830207455005E9F80207C0
:1006D2003CBBFE05E9F802074E89828A830207576E
:1006E200D083D082F8E4937012740193700DA3A3A7
:1006F20093F8740193F5828883E4737402936860BB
:06070200EFA3A3A380DFBA
:100F0600021009E493A3F8E493A34003F68001F2E8
:100F160008DFF48029E493A3F85407240CC8C333EC
:100F2600C4540F4420C8834004F456800146F6DFBB
:100F3600E4800B0102040810204080901839E47EFA
:100F4600019360BCA3FF543F30E509541FFEE493B0
:100F5600A360010ECF54C025E060A840B8E493A377
:100F6600FAE493A3F8E493A3C8C582C8CAC583CAA2
:100F7600F0A3C8C582C8CAC583CADFE9DEE780BE5A
:01183F0000A8
:0C070800E6FC08E6FD08E6FE08E6FF221D
:0C071400E0FCA3E0FDA3E0FEA3E0FF2258
:0C072000E2FC08E2FD08E2FE08E2FF2215
:10072C00E493FC740193FD740293FE740393FF2213
:09073C00E6FB08E6FA08E6F922E2
:09074500E0FBA3E0FAA3E0F922B5
:09074E00E2FB08E2FA08E2F922DC
:0C075700E493FB740193FA740293F922FE
:00000001FF
